:0E0EA70081838587898B8D80828486888A8CE2
:10049900014601C186C105C101C102014700015CD4
:1004A90000015500015600015000015100032D00C3
:1004B9000000034D00000013333F065B4F666D7D5E
:1004C900077F6F777C395E7971004037015400C12D
:1004D90003C100012100034A00000001320001525A
:1004E90000012200012300C18403570000000124F8
:1004F9000002250000015B000149000127000228D4
:100509000000013101014800015A00012A00022BB3
:05051900000001530089
:10037E0012039A9000021202EA540FFD0F12039A12
:0C038E009000021202EAC4540FFD7F0828
:10039A00854380EF14B4080050549003B275F003FB
:1003AA00A4C58325F0C583730203CA0203CE0203E0
:1003BA00D20203D60203DA0203E20203EA0203F2DA
:1003CA00C2A4800EC2A48012C2A48016C2A4801A3B
:1003DA00D2A4C2A3C2A28016D2A4C2A3D2A2800E61
:1003EA00D2A4D2A3C2A28006D2A4D2A3D2A2743328
:1003FA002DF8E6F5800000000000000000000085EE
:03040A004380220A
:10000E00EF1470030200A314700302012324026094
:10001E00030201A99000021202EA75F00A84FD7F24
:10002E000812039A9000021202EA75F00A84ADF0EB
:10003E001F12039A7D111F12039A9000011202EAF9
:10004E0075F00A84FD1F12039A9000011202EA75E0
:10005E00F00A84ADF01F12039A7D111F12039AE568
:10006E0056C39496401A1202D1600AE4FD1F120381
:10007E009A7D1280077D0F7F0212039A1F12039A38
:10008E00C3E556942C7480948150030201A97D100F
:10009E007F0102019F9000021202EA75F00A84FDB0
:1000AE007F0812039A9000021202EA75F00A84ADDC
:1000BE00F01F12039A7D111F12039A7F0312039AE7
:1000CE001202D1600AE4FD1F12039A7D1280077D91
:1000DE000F7F0212039A1F12039AE556C39496409D
:1000EE00209000011202EA75F00A84FD7F051203CA
:1000FE009A9000011202EA75F00A84ADF01F120305
:10010E009AC3E556942C7480948150030201A97D04
:10011E00107F04807C7D117F0612039A90000112DD
:10012E0002EA75F00A84FD1F12039A900001120272
:10013E00EA75F00A84ADF01F12039A7D111F1203A7
:10014E009A1202D1600AE4FD1F12039A7D128007F3
:10015E007D0F7F0212039A1F12039AE556C39496DF
:10016E0040209000021202EA75F00A84FD7F081208
:10017E00039A9000021202EA75F00A84ADF01F1283
:10018E00039AC3E556942C74809481400E7D107FA3
:0C019E000712039A0F12039AE4F5562290
:100638008B088A09890AEF6402700E8F82F583128B
:1006480002EAC3941740228017EF6401702BAB08AD
:10065800AA09A90A8F82F5831202EAC3943B4009CA
:100668008F82758300E402035CAB08AA09A90A8F8C
:10067800827583007401020317EF700AAB08AA0998
:07068800A90A0412034A2233
:10068F008B088A09890AEF640270118F82F5831231
:10069F0002EA70258F82F5837417801AEF64017058
:1006AF0028AB08AA09A90A8F82F5831202EA7009FA
:1006BF008F82F583743B02035CAB08AA09A90A8FEA
:1006CF008275830074FF020317EF7009AB08AA0944
:0606DF00A90A12034A22E1
:10091000E5211460111460151460202403703A203E
:10092000B1117521012220B102802B800630B10760
:10093000120AC6E4F521227521032220B1180554BC
:10094000E554C394C84012E4F554D203E546B4011B
:0909500008C205D206227521023D
:01095900227B
:100AC600300307C203B2A7B20022300038B2A6052F
:100AD60046E546C394054003754601E546B401095B
:100AE600120E5CC205D2068012E546B40305120C4E
:100AF600BB8008E546B40403120D03E546640160B5
:060B060004D205C2062224
:100E9700758901758CFC758A18D2AFD2A9D28C22BC
:03000B00020E7270
:100E7200758CFC758A1805470556055C05550550A5
:030E8200055132E5
:100BCD00C2B500C2B600D2B500E4FEEF1392B4EF89
:100BDD00C313FFD2B600C2B6000EBE08EEE4FEEDA2
:100BED001392B4EDC313FDD2B600C2B6000EBE080B
:040BFD00EEC2B5008F
:010C010022D0
:10095A00C2B500C2B600D2B500E4FDEF1392B4EFFF
:10096A00C313FFD2B600C2B6000DBD08EE00E4FD07
:10097A00A2B4E433FFC43333335480FCEEC3134CC4
:10098A00FED2B600C2B6000DBD08E5C2B500D2B6A9
:09099A0000C2B400D2B400AF06A3
:0109A3002231
:100D6F00E4FD7F8E120BCDE4FCEC900EAE93FF747E
:100D7F004A2CF8E6FD120BCD0CBC03ED7D807F8E67
:030D8F00020BCD87
:100E5C00E4FBEB900EA793FF12095A744A2BF8A6E9
:050E6C00070BBB03EDC4
:010E7100225E
:1008C50020B005753202800B20B205753203800316
:1008D500E4F532E52214600F1460142402702BE550
:1008E50032702075220122E5327002801A8014E5EB
:1008F500326014B402051208278008E532B40303F8
:0A090500120B0CE4F5222275220209
:01090F0022C5
:100B4F00E523146011146015146020240370312004
:100B5F00B3117523012220B3028022800630B30720
:100B6F00120DF3E4F523227523032220B30F05544E
:100B7F00E554C394C84009E4F554D2032275230207
:010B8F002243
:100DF300300309C203C2A7D205C2062220030EB2E2
:0E0E0300A60552E552C394034003E4F55222C3
:10082700E5526402701E744A2552F8E6C3942340C9
:1008370003E4F62206744A2552F8E6540FC3940AD5
:10084700402C8026E55264016004E5527020744A0A
:100857002552F8E6C394594003E4F62206744A2564
:0F08670052F8E6540FC3940A4004740626F62292
:100B0C00E55264027018744A2552F8E67003762395
:100B1C002216744A2552F8E6540F70268020E552AE
:100B2C0064016004E552701A744A2552F8E67003A9
:100B3C0076592216744A2552F8E6540F700474F94B
:030B4C0026F62268
:1009A400120E5CE54A540FFD7F0112039AE54AC416
:1009B400540FFD0F12039A7D110F12039AE54B5445
:1009C4000FFD0F12039AE54BC4540FFD0F12039A47
:1009D4007D110F12039AE54C540FFD0F12039AE593
:0909E4004CC4540FFD0F02039AEC
:1001AA00EF14606914700302026E240260030202F3
:1001BA00D07D117F0312039A9000011202EA540FB4
:1001CA00FD0F12039A9000011202EAC4540FFD7F38
:1001DA000512039A7D110F12037EE556C3949640C9
:1001EA00171202D1540FFD7F0112039A1202D1C4D1
:1001FA00540FFD7F0212039AC3E556942C7480941F
:10020A008150030202D07D107F010202C61202D180
:10021A00540FFD7F0112039A1202D1C4540FFD7FBD
:10022A000212039A7D110F12039A7F0612037EE5CA
:10023A0056C39496401D9000011202EA540FFD7FA6
:10024A000412039A9000011202EAC4540FFD7F05BA
:10025A0012039AC3E556942C7480948140687D10E9
:10026A007F0480581202D1540FFD7F0112039A12A3
:10027A0002D1C4540FFD7F0212039A7D110F12039B
:10028A009A9000011202EA540FFD0F12039A90008D
:10029A00011202EAC4540FFD7F0512039A7D110F61
:1002AA0012039AE556C394964003120381C3E55696
:1002BA00942C74809481400E7D107F0712039A0F4C
:0702CA0012039AE4F556222D
:10051F00D2A1D2A0E4F550F551F556E5466401702D
:10052F005130060AFB7A00794AAF521201AAE55CF4
:10053F00C3940A4012E4F55C1209101208C5120B9D
:10054F004F120A36120A7E3005051209A4800312D3
:10055F000D6F30010CE550C394644005B2A0E4F573
:10056F00503002B7E551C3946440B0B2A1E4F551E5
:03057F0080A9222E
:10087600120E97E4F547E546640470421206E5E574
:1008860047C3940A4011E4F5471209101209ED1204
:1008960007372004020557E557C3946340D8E4F5AB
:1008A600570558E558943C40CDE4F5580559E559A7
:0F08B600D3946340C1E4F557F558F55980B82243
:1009ED0020B005753002800B20B2057530038003F1
:1009FD00E4F530E52414600F14601424027029E529
:100A0D0030701E75240122E530700280188012E5C9
:100A1D00306012B40204B2048007E530B40302D290
:080A2D0004E4F5242275240203
:010A3500229E
:10073700E525704BE526146014146018146028240E
:1007470003703C20B3147525007526012220B302DF
:100757008027800630B309120E2DE4F525F52622F1
:100767007525007526032220B30F0554E554C3945D
:0F077700C8400CE4F554D2032275250075260204
:010786002250
:100E2D00300308C203C2A775460122200309B2A6EA
:080E3D00E4F559F558F55722C0
:1006E500E55775F00A84ADF07F0112039AE5577559
:1006F500F00A84FD0F12039A7D110F12039AE55833
:1007050075F00A84ADF00F12039AE55875F00A8466
:10071500FD0F12039A7D110F12039AE55975F00A20
:1007250084ADF00F12039AE55975F00A84FD0F02A6
:02073500039A25
:1005820020B005755B02800B20B205755B0380030A
:10059200E4F55BE52714600F1460142402703BE558
:1005A2005B703075270122E55B7002802A8024E5AA
:1005B2005B6024B4020D7B007A00792DAF491206EC
:1005C200388010E55BB4030B7B007A00792DAF49CC
:0A05D20012068FE4F52722752702B8
:0105DC0022FC
:10078700E528704BE52914601414601814602824B8
:1007970003703C20B3147528007529012220B30289
:1007A7008027800630B309120DB3E4F528F5292216
:1007B7007528007529032220B30F0554E554C39407
:0F07C700C8400CE4F554D20322752800752902AE
:0107D6002200
:100DB30030030BC203120CBBC2A7754601222003EA
:100DC3000EB2A60549E549C394034003E4F549225D
:100CBB00AB2DAD2D7FA0120C64E52D04FDAB2E7F6B
:100CCB00A2120C64E52D2402FDAB2F7FA4120C6441
:040CDB00753101224C
:100CDF00AD2D7FA1120B908F2DE52D04FD7FA3125B
:100CEF000B908F2EE52D2402FD7FA5120B908F2FD9
:040CFF00E4F53122C5
:100A3600E52D6401703DE54BC4540F75F00AA4FF23
:100A4600E54B540F7C002FFFEC35F0FEEFB52E235F
:100A5600ECB5061FE54CC4540F75F00AA4FFE54C2F
:100A6600540F2FFFEC35F0FEEFB52F07ECB506035C
:080A7600D20122D2A0C201222C
:100C0200E4F556E54664027027E5316003120CDF15
:100C12007B007A00792DAF4912000EE555C3940A84
:100C220040E1E4F55512058212078712091080D3BC
:010C3200229F
:1005DD0020B005754802800B20B2057548038003D5
:1005ED00E4F548E52A14600F1460142402703BE50D
:1005FD00487030752A0122E5487002802A8024E572
:10060D00486024B4020D7B007A00794DAF5A120672
:10061D00388010E548B4030B7B007A00794DAF5A52
:0A062D0012068FE4F52A22752A0256
:0106370022A0
:1007D700E52B704BE52C1460141460181460282462
:1007E70003703C20B314752B00752C012220B30233
:1007F7008027800630B309120DD3E4F52BF52C22A0
:10080700752B00752C032220B30F0554E554C394B0
:0F081700C8400CE4F554D20322752B00752C0257
:0108260022AF
:100DD30030030BC203C2A7120D0375460122200381
:100DE3000EB2A6055AE55AD394024003E4F55A22FB
:100D0300AB4DAD4D7FA6120C64E54D04FDAB4E7F9C
:100D1300A8120C64E54D2402FDAB4F7FAA120C64AC
:040D230075530122E1
:100D2700AD4D7FA7120B908F4DE54D04FD7FA912A6
:100D37000B908F4EE54D2402FD7FAB120B908F4F2A
:040D4700E4F553225A
:100A7E00E54D6401703DE54BC4540F75F00AA4FFBB
:100A8E00E54B540F7C002FFFEC35F0FEEFB54E23F7
:100A9E00ECB5061FE54CC4540F75F00AA4FFE54CE7
:100AAE00540F2FFFEC35F0FEEFB54F07ECB50603F4
:080ABE00D20222D2A0C20222E2
:100C3300E4F556E54664037027E5536003120D2778
:100C43007B007A00794DAF5A12000EE555C3940A22
:100C530040E1E4F5551205DD1207D712091080D3E0
:010C6300226E
:100C9100120D6F120E97E54624FE600F14601114B9
:100CA1006013240370F012051F80EB120C0280E622
:0A0CB100120C3380E112087680DC9B
:0B0E8500D2A07F05120E90D2A17F05C5
:070E9000EF60031F80FA224E
:0D0EB500120E85C2A07F03120E90C2A12272
:0A0EC200C2A1C2A0120E8CD2A02221
:100E4500C2A1300704C2A08002D2A0120E87C2A19F
:070E5500D2A07F05020E9000
:070E1100AF04120D92E4FF93
:100E1800C2A1120E8530A008C2A1120EC27F002204
:050E2800C2A17F0122C0
:020D9200AE07AA
:100D9400C2A1E4FDEE3392A07F05120E90D2A1EE23
:0E0DA40025E0FE7F05120E90C2A10DBD08E6EF
:010DB200221E
:100D4B00C2A17F05120E90E4FD120E8CEE25E0FE83
:100D5B00A2A0E4334206C2A17F05120E900DBD087E
:030D6B00E8AF06E8
:010D6E002262
:060C6400AE07AC03AB0576
:100C6A005306FE120EB5AF06120D92120E18EF6061
:100C7A0013AF03120D92120E18EF6008AF04120D93
:070C8A0092120E18020EC2C7
:040B9000AC07AB05FE
:100B94005304FE120EB5120E11EF602AAF03120EAB
:100BA40013EF601F120EB5430401120E11EF601013
:100BB400120D4BAE07C207120E45120EC2AF06222B
:080BC4007F00227F00227F0068
:010BCC002206
:0300000002040DEA
:0C040D00787FE4F6D8FD75815C02045491
:1002D100BB010689828A83E0225002E722BBFE022B
:0902E100E32289828A83E493225E
:1002EA00BB010CE58229F582E5833AF583E02250C9
:1002FA0006E92582F8E622BBFE06E92582F8E22213
:0D030A00E58229F582E5833AF583E493222C
:10031700BB010FF8E58229F582E5833AF583E028EA
:10032700F0225009C58229F8E58226F622BBFE098C
:10033700C58229F8E22582F222F8EA2583F583E9C6
:03034700932822D6
:10034A00BB010689828A83F0225002F722BBFE0192
:02035A00F3228C
:10035C00F8BB010DE58229F582E5833AF583E8F0D7
:10036C00225006E92582C8F622BBFE05E92582C883
:02037C00F2226B
:10041900020C91E493A3F8E493A34003F68001F25C
:1004290008DFF48029E493A3F85407240CC8C333E4
:10043900C4540F4420C8834004F456800146F6DFB3
:10044900E4800B0102040810204080900499E47EA6
:10045900019360BCA3FF543F30E509541FFEE493A8
:10046900A360010ECF54C025E060A840B8E493A36F
:10047900FAE493A3F8E493A3C8C582C8CAC583CA9A
:10048900F0A3C8C582C8CAC583CADFE9DEE780BE52
:01051E0000DC
:00000001FF
